:100000000C9436000C945E000C945E000C945E0020
:100010000C945E000C945E000C945E000C945E00E8
:100020000C945E000C945E000C945E000C945E00D8
:100030000C945E000C945E000C945E000C945E00C8
:100040000C94C8030C945E000C9438040C941204B5
:100050000C945E000C945E000C945E000C945E00A8
:100060000C945E000C945E006A04210711241FBEEC
:10007000CFEFD8E0DEBFCDBF23E0AEEEB2E001C0EF
:100080001D92A93AB207E1F712E0A0E0B1E0ECEE70
:10009000F3E102C005900D92AE3EB107D9F710E032
:1000A000C5E3D0E004C02197FE010E94D407C43309
:1000B000D107C9F70E94A2040C94E9090C9400002E
:1000C0003FB7F8948091F4029091F502A091F60266
:1000D000B091F70226B5A89B05C02F3F19F00196F5
:1000E000A11DB11D3FBFBA2FA92F982F8827BC0192
:1000F000CD01620F711D811D911D42E0660F771FBA
:10010000881F991F4A95D1F708958F929F92AF92B9
:10011000BF92CF92DF92EF92FF924B015C010E945F
:1001200060006B017C010E9460006C197D098E09E2
:100130009F09683E734081059105A8F321E0821A6A
:100140009108A108B10888EEC80E83E0D81EE11C12
:10015000F11C81149104A104B10429F7FF90EF90E0
:10016000DF90CF90BF90AF909F908F9008950895AB
:10017000AF92BF92CF92DF92EF92FF920F931F93B5
:10018000CF93DF936C017B018B01040F151FEB01F3
:100190005E01AE18BF08C017D10759F06991D601AA
:1001A000ED91FC910190F081E02DC6010995892B1C
:1001B00079F7C501DF91CF911F910F91FF90EF90DB
:1001C000DF90CF90BF90AF900895FC01538D448D88
:1001D000252F30E0842F90E0821B930B541710F0F2
:1001E000CF96089501970895FC01918D828D9817FF
:1001F00061F0A28DAE0FBF2FB11D5D968C91928DD7
:100200009F5F9F73928F90E008958FEF9FEF089507
:100210002FB7F8948091F8029091F902A091FA0218
:10022000B091FB022FBF8093040390930503A0932A
:100230000603B09307038CEF92E00E94F40097FF4F
:1002400026C02FB7F8948091F8029091F902A091FE
:10025000FA02B091FB022FBF4091040350910503B5
:100260006091060370910703841B950BA60BB70BD7
:1002700040910003509101036091020370910303C8
:1002800084179507A607B707B0F28FEF9FEF089581
:10029000FC01918D828D981731F0828DE80FF11D50
:1002A000858D90E008958FEF9FEF0895FC01918D6B
:1002B000228D892F90E0805C9F4F821B91098F7364
:1002C000992708958CEF92E00E94560121E0892B36
:1002D00009F420E0822F089580E090E0892B29F036
:1002E0000E94620181110C9400000895FC01A48D0C
:1002F000A80FB92FB11DA35ABF4F2C91848D90E048
:1003000001968F739927848FA689B7892C93A0892A
:10031000B1898C91837080648C93938D848D9813B4
:1003200006C00288F389E02D80818F7D8083089547
:10033000EF92FF920F931F93CF93DF93EC0181E035
:10034000888F9B8D8C8D98131AC0E889F9898081DC
:1003500085FF15C09FB7F894EE89FF896083E8890F
:10036000F98980818370806480839FBF81E090E001
:10037000DF91CF911F910F91FF90EF900895F62E8E
:100380000B8D10E00F5F1F4F0F731127E02E8C8D28
:100390008E110CC00FB607FCFACFE889F98980816D
:1003A00085FFF5CFCE010E947601F1CFEB8DEC0FEA
:1003B000FD2FF11DE35AFF4FF0829FB7F8940B8F8A
:1003C000EA89FB8980818062CFCFCF93DF93EC01F4
:1003D000888D8823B9F0AA89BB89E889F9898C912D
:1003E00085FD03C0808186FD0DC00FB607FCF7CFE9
:1003F0008C9185FFF2CF808185FFEDCFCE010E94E9
:100400007601E9CFDF91CF910895FC0144815581B8
:100410008091A3039091A4038417950780F08091A5
:100420009F039091A003009751F060817181611545
:10043000710529F00E94CC0921E0892B09F020E008
:10044000822F08954091A3035091A40341155105B3
:10045000F1F0BA018417950708F4BC0180919F035D
:100460009091A003461B570B5093A4034093A30302
:10047000680F791F0E94DA09E0919F03F091A003B1
:100480008091A3039091A403E80FF91F10820895AF
:10049000FC0180819181009711F00C9476080895F9
:1004A000FC0101900020E9F73197AF01481B590B7F
:1004B000BC018CEF92E00C94B8008F929F92AF92A7
:1004C000BF920F931F93CF93DF93CDB7DEB7A19762
:1004D0000FB6F894DEBF0FBECDBF19A2423008F4AC
:1004E0004AE08E010F5D1F4F842E912CB12CA12C60
:1004F000A50194010E94B207E62FB901CA01EA30B2
:10050000F4F4E05DD801EE938D01232B242B252BF1
:1005100079F790E080E0109719F0CD010E94500229
:10052000A1960FB6F894DEBF0FBECDBFDF91CF917D
:100530001F910F91BF90AF909F908F900895E95CAD
:10054000E1CFCF93DF93682F70E090E080E04AE046
:100550000E945D02EC0188E191E00E9450028C0F44
:100560009D1FDF91CF910895CF93DF930E9450029A
:10057000EC0188E191E00E9450028C0F9D1FDF91F9
:10058000CF910895CF93DF93BC0190E080E04AE0E3
:100590000E945D02EC0188E191E00E9450028C0F04
:1005A0009D1FDF91CF9108950F931F93CF93DF93FA
:1005B0008C01EB01FC01808191810097E1F0688161
:1005C000798161157105A9F0428153812C813D81AA
:1005D0004217530770F00E94C5098C819D81F80174
:1005E000958384831D821C82DF91CF911F910F918F
:1005F00008950E94760888819981F801918380830B
:100600008A819B81938382838C819D81958384835E
:10061000198218821B821A82E5CFFC0180819181A8
:10062000009711F00C94290760E070E0CB01089569
:100630000F931F93CF93DF93EC01888199810097EB
:1006400059F02A813B812617370730F081E0DF918E
:10065000CF911F910F9108958B016F5F7F4F0E9483
:10066000FF08009759F0998388831B830A832C81A4
:100670003D81232B59F7FC011082E8CF80E0E7CFC2
:10068000EF92FF920F931F93CF93DF93EC017B01C7
:100690008A01BA010E94180328813981811114C08E
:1006A0002115310519F0C9010E94760819821882B6
:1006B0001D821C821B821A82CE01DF91CF911F9175
:1006C0000F91FF90EF9008951D830C83B701C9012E
:1006D0000E94C509F1CFFC0111821082138212829F
:1006E00015821482FB0101900020E9F73197AF01D8
:1006F000461B570B0C944003FF920F931F93CF930D
:10070000DF93EC016AE171E00E946B030091A303A7
:100710001091A4030115110539F10430110510F0F1
:1007200004E010E0E0919F03F091A003E00FF11FBF
:10073000F080108260919F037091A0036115710594
:10074000D1F0FB0101900020E9F73197AF01461B82
:10075000570BCE010E94400380919F039091A0030C
:10076000080F191FF801F082CE01DF91CF911F9180
:100770000F91FF90089588819981009711F00E9450
:100780007608198218821D821C821B821A82E4CF8D
:100790001F920F920FB60F9211242F933F938F93B6
:1007A0009F93AF93BF938091F8029091F902A0912B
:1007B000FA02B091FB023091F30223E0230F2D37B0
:1007C00058F50196A11DB11D2093F3028093F80204
:1007D0009093F902A093FA02B093FB028091F40285
:1007E0009091F502A091F602B091F7020196A11D39
:1007F000B11D8093F4029093F502A093F602B0939A
:10080000F702BF91AF919F918F913F912F910F90E0
:100810000FBE0F901F90189526E8230F0296A11D7A
:10082000B11DD2CF1F920F920FB60F9211242F93AA
:100830003F934F935F936F937F938F939F93AF9368
:10084000BF93EF93FF938CEF92E00E947601FF91AC
:10085000EF91BF91AF919F918F917F916F915F9138
:100860004F913F912F910F900FBE0F901F901895B1
:100870001F920F920FB60F9211242F938F939F9375
:10088000EF93FF93E0910C03F0910D038081E091D1
:100890001203F091130382FD1BC090818091150318
:1008A0008F5F8F7320911603821741F0E09115033B
:1008B000F0E0E450FD4F958F80931503FF91EF9189
:1008C0009F918F912F910F900FBE0F901F901895B1
:1008D0008081F4CFECEFF2E01382128288EE93E095
:1008E000A0E0B0E084839583A683B7838AE091E09B
:1008F0009183808385EC90E09587848784EC90E0F9
:100900009787868780EC90E0918B808B81EC90E0DC
:10091000938B828B82EC90E0958B848B86EC90E0BD
:10092000978B868B118E128E138E148E6AE171E076
:100930008FE993E00E946B036AE171E089E993E03B
:100940000C946B03CF93DF93CDB7DEB728970FB628
:10095000F894DEBF0FBECDBF789484B5826084BDAD
:1009600084B5816084BD85B5826085BD85B58160B3
:1009700085BD80916E00816080936E001092810031
:1009800080918100826080938100809181008160EC
:1009900080938100809180008160809380008091AD
:1009A000B10084608093B1008091B0008160809339
:1009B000B00080917A00846080937A0080917A0000
:1009C000826080937A0080917A00816080937A00BF
:1009D00080917A00806880937A001092C100E09143
:1009E0000C03F0910D0382E08083E0910803F09105
:1009F00009031082E0910A03F0910B038FEC8083CE
:100A000010921403E0911003F091110386E08083AB
:100A1000E0910E03F0910F03808180618083E0916B
:100A20000E03F0910F03808188608083E0910E03B4
:100A3000F0910F03808180688083E0910E03F09134
:100A40000F0380818F7D80838BE191E00E94B4024F
:100A500082E391E00E94B40283E591E00E94B40237
:100A600082E791E00E94B4028EE891E00E94B40215
:100A70008CEA91E00E94B4028AE191E00E94B40203
:100A80008CED91E00E94B40280EF91E00E94B402EC
:100A90008FE092E00E94B4028DE292E00E94B402E4
:100AA00080E0E82E80E0F82E8CEF92E00E94560164
:100AB000181619060CF0B9C16AE171E0CE01019671
:100AC0000E946B030E94080197FD1EC08A309105A9
:100AD000D9F08F8318860D811E810F5F1F4FB801DB
:100AE000CE0101960E941803882361F329813A817F
:100AF0008D819E81BE01695F7F4F820F931F0E948F
:100B0000C5091E830D83DECFBE016F5F7F4F8FE966
:100B100093E00E94D402CE0101960E94480265E54E
:100B200072E0CE0101960E946B03CE0101960E94F5
:100B30000502182FCE0101960E944802112309F4E4
:100B4000BFC084E090E00E9422026CE271E080E08D
:100B500090E00E948500CE0101960E947C03BE01B8
:100B60006F5F7F4F89E993E00E94D402CE01019626
:100B70000E9448026CE271E080E090E00E948500F3
:100B800089E993E00E940D037093F2026093F102F1
:100B900089E592E00E94B4028091F1029091F20204
:100BA0000E94C2026CE271E080E090E00E94850049
:100BB00085E090E00E9422028FE993E00E940D03FD
:100BC0007093F0026093EF028DE592E00E94B40210
:100BD0008091EF029091F0020E94C2026CE271E0FB
:100BE00080E090E00E94850085E090E00E94220273
:100BF0008FE993E00E940D036093EE0281E692E09C
:100C00000E94B4028091EE020E94A1028AE191E06A
:100C10000E94B40287E692E00E94B4028AE191E069
:100C20000E94B4026CE271E080E090E00E948500D6
:100C30008091F1029091F2022091EF023091F00246
:100C40008217930768F56091EE020E946D0766E9CE
:100C500070E080E090E00E9485008AE191E00E94CF
:100C6000B4026091F1027091F20290E080E04AE0FB
:100C70000E945D0283E892E00E94B4028091F1023A
:100C80009091F2020E9465070E94A1028091F102F8
:100C90009091F20201969093F2028093F102C8CFF4
:100CA0008AE191E00E94B4028AE191E00E94B402DC
:100CB00087E992E00E94B40288EB92E00E94B402BD
:100CC0006EEC72E0CE0101960E946B03CE0101969C
:100CD0000E940502182FCE0101960E94480211239E
:100CE00009F4A3C084E090E00E9422026CE271E06B
:100CF00080E090E00E948500CE0101960E947C0376
:100D0000BE016F5F7F4F89E993E00E94D402CE015C
:100D100001960E9448026CE271E080E090E00E943F
:100D2000850089E993E00E940D037093F2026093BD
:100D3000F10289E592E00E94B4028091F102909163
:100D4000F2020E94C2026CE271E080E090E00E9438
:100D5000850085E090E00E9422028FE993E00E94E6
:100D60000D037093F0026093EF028DE592E00E9414
:100D7000B4028091EF029091F0020E94C2026CE2F4
:100D800071E080E090E00E9485008AE191E00E949D
:100D9000B40282ED92E00E94B4028AE191E00E94E6
:100DA000B4022091F1023091F2028091EF02909111
:100DB000F0022817390748F58AE191E00E94B40251
:100DC0006091F1027091F20290E080E04AE00E94AE
:100DD0005D0283E892E00E94B4028091F10290915A
:100DE000F2020E9465070E94A10266E970E080E0BD
:100DF00090E00E9485008091F1029091F2020196AC
:100E00009093F2028093F102CCCF8AE191E00E94AC
:100E1000B4028AE191E00E94B40287E992E00E9464
:100E2000B40288EB92E00E94B402E114F10409F4E8
:100E30003BCE0E946201882309F436CE0E94000056
:100E400033CE89E993E00E9448028FE993E00C9445
:100E500048021F93FC0199278827BC01E89411914F
:100E60001032E9F3193010F01E30C8F31B3251F084
:100E70001D3249F4689406C00E945007610F711D2D
:100E8000811D911D119110531A30B0F33EF49095CD
:100E90008095709561957F4F8F4F9F4F1F9108955B
:100EA000592F482F372F262F660F771F881F991F1E
:100EB000660F771F881F991F620F731F841F951F6E
:100EC000660F771F881F991F0895F999FECF92BD6D
:100ED00081BDF89A992780B50895262FF999FECFFC
:100EE0001FBA92BD81BD20BD0FB6F894FA9AF99A47
:100EF0000FBE019608952F923F924F925F926F928C
:100F00007F928F929F92AF92BF92CF92DF92EF9299
:100F1000FF920F931F93CF93DF93CDB7DEB7CA1B1A
:100F2000DB0B0FB6F894DEBF0FBECDBF09942A8845
:100F3000398848885F846E847D848C849B84AA84ED
:100F4000B984C884DF80EE80FD800C811B81AA817A
:100F5000B981CE0FD11D0FB6F894DEBF0FBECDBF45
:100F6000ED010895A1E21A2EAA1BBB1BFD010DC0C5
:100F7000AA1FBB1FEE1FFF1FA217B307E407F50749
:100F800020F0A21BB30BE40BF50B661F771F881F25
:100F9000991F1A9469F760957095809590959B01BB
:100FA000AC01BD01CF010895EE0FFF1F0590F49134
:100FB000E02D09940F931F93CF93DF938230910517
:100FC00010F482E090E0E091A703F091A80330E0F4
:100FD00020E0B0E0A0E0309799F42115310509F444
:100FE0004AC0281B390B24303105D8F58A819B81F2
:100FF0006115710589F1FB0193838283FE0111C0A4
:10100000408151810281138148175907E0F0481748
:10101000590799F4109761F012960C931297139652
:101020001C933296CF01DF91CF911F910F910895BC
:101030000093A7031093A803F4CF2115310551F0B5
:101040004217530738F0A901DB019A01BD01DF0106
:10105000F801C1CFEF01F9CF9093A8038093A703C4
:10106000CDCFFE01E20FF31F8193919322503109FE
:1010700039832883D7CF2091A5033091A603232B52
:1010800041F420910201309103013093A603209393
:10109000A50320910001309101012115310541F492
:1010A0002DB73EB74091040150910501241B350B2B
:1010B000E091A503F091A603E217F307A0F42E1B1D
:1010C0003F0B2817390778F0AC014E5F5F4F2417AC
:1010D000350748F04E0F5F1F5093A6034093A503BA
:1010E000819391939FCFF0E0E0E09CCFCF93DF938B
:1010F0000097E9F0FC01329713821282A091A703B6
:10110000B091A803ED0130E020E01097A1F4208118
:101110003181820F931F2091A5033091A6032817D8
:10112000390709F061C0F093A603E093A503DF91AE
:10113000CF910895EA01CE17DF07E8F54A815B8178
:101140009E0141155105B1F7E901FB83EA834991FD
:101150005991C40FD51FEC17FD0761F4808191816F
:101160000296840F951FE901998388838281938178
:101170009B838A83F0E0E0E012968D919C91139717
:101180000097B9F52D913C911197CD010296820FF0
:10119000931F2091A5033091A6032817390739F62C
:1011A000309751F51092A8031092A703B093A603AD
:1011B000A093A503BCCFD383C28340815181840F08
:1011C000951FC817D90761F44E5F5F4F88819981D9
:1011D000480F591F518340838A819B819383828367
:1011E0002115310509F0B0CFF093A803E093A703D0
:1011F0009ECFFD01DC01C0CF13821282D7CFB0E0B9
:10120000A0E0E5E0F9E00C947D078C01009751F433
:10121000CB010E94DA078C01C801CDB7DEB7E0E14F
:101220000C949907FC01E60FF71F9C01225031092D
:10123000E217F30708F49DC0D901CD91DC91119715
:10124000C617D70798F0C530D10530F3CE01049703
:101250008617970708F3C61BD70B2297C193D19324
:101260006D937C93CF010E947608D6CF5B01AC1AB8
:10127000BD0A4C018C0E9D1EA091A703B091A8033E
:10128000512C412CF12CE12C109731F58091A503C4
:101290009091A6038815990509F05CC0461657067B
:1012A00008F058C08091000190910101009741F42D
:1012B0008DB79EB74091040150910501841B950B99
:1012C000E817F90708F055C0F093A603E093A503CB
:1012D000F90171836083A0CF8D919C911197129633
:1012E0006C90129713967C901397A815B90559F531
:1012F0006C0142E0C40ED11CCA14DB0420F1AC0125
:101300004A195B09DA011296159780F0628273829E
:1013100051834083D9016D937C93E114F10471F002
:10132000D7011396FC93EE93129776CF22968C0FEB
:101330009D1FF90191838083F301EFCFF093A80300
:10134000E093A70369CF4816590608F42C017D01E4
:10135000D3019ACFCB010E94DA077C01009749F0B4
:10136000AE01B8010E94BC09C8010E94760887013D
:1013700053CF10E000E050CFFB01DC0102C0019030
:101380000D9241505040D8F70895FB01DC010190C7
:101390000D920020E1F70895FB01DC01415050401F
:1013A00030F08D910190801919F40020B9F7881B55
:1013B000990B0895FB01DC014150504048F0019029
:1013C0000D920020C9F701C01D9241505040E0F736
:1013D000089510E0C5E3D0E004C0FE010E94D407E8
:0C13E0002196C633D107C9F7F894FFCF5F
:1013EC000000A9038000000000009801B800E5008F
:1013FC00E5015601F40048010D0A005061726120AC
:10140C00677261766172206E6120454550524F4D76
:10141C002C00656E7669617220477261206D61697E
:10142C0073206F7320656E64657265C3A76F73203C
:10143C00646500696E6963696F2065206465206668
:10144C00696D20636F6D20342064696769746F73F4
:10145C002C006D616973206F2056616C6F72206176
:10146C002067726176617220636F6D20330064694E
:10147C006769746F732065206D6178696D6F205694
:10148C00616C6F7220646520323535004578656D6E
:10149C00706C6F3A204772612D303030302D303205
:1014AC0030302D323535206F75204772612D30303C
:1014BC0035302D313530302D303030005061726187
:1014CC00204C657220646120454550524F4D2C00D4
:1014DC00656E76696172204C6572206D616973204E
:1014EC006F20656E64657265C3A76F2064650069C3
:1014FC006E6963696F20652064652066696D206381
:10150C006F6D20342064696769746F73004578656A
:10151C006D706C6F3A204C65722D303030302D3040
:10152C00323030206F75204C65722D303035302DB7
:10153C00303530300047726100696E690066696D44
:10154C000056616C6F72002B3D2B3D2B2047524196
:10155C0056414E444F20454550524F4D202B3D2B6C
:10156C003D2B00203C20454550524F4D207C2056B1
:10157C00616C6F72203E00466569746F2C20477257
:10158C0061746F20706F722075736172206E6F734F
:10159C00736F206170702E002020202020202020CE
:1015AC002020203C4C6F726475696E6F3E004C6558
:1015BC0072002B3D2B3D2B204C454954555241205C
:0E15CC00454550524F4D202B3D2B3D2B00002E
:00000001FF
